{
  "contractName": "Property",
  "abi": [
    {
      "constant": true,
      "inputs": [],
      "name": "seller",
      "outputs": [
        {
          "name": "",
          "type": "address"
        }
      ],
      "payable": false,
      "stateMutability": "view",
      "type": "function"
    },
    {
      "constant": true,
      "inputs": [
        {
          "name": "",
          "type": "address"
        }
      ],
      "name": "balances",
      "outputs": [
        {
          "name": "",
          "type": "uint256"
        }
      ],
      "payable": false,
      "stateMutability": "view",
      "type": "function"
    },
    {
      "constant": true,
      "inputs": [
        {
          "name": "",
          "type": "uint256"
        }
      ],
      "name": "plots",
      "outputs": [
        {
          "name": "owner",
          "type": "address"
        },
        {
          "name": "seller",
          "type": "address"
        },
        {
          "name": "forSale",
          "type": "bool"
        },
        {
          "name": "price",
          "type": "uint256"
        }
      ],
      "payable": false,
      "stateMutability": "view",
      "type": "function"
    },
    {
      "inputs": [],
      "payable": false,
      "stateMutability": "nonpayable",
      "type": "constructor"
    },
    {
      "anonymous": false,
      "inputs": [
        {
          "indexed": false,
          "name": "index",
          "type": "uint256"
        }
      ],
      "name": "PlotOwnerChanged",
      "type": "event"
    },
    {
      "anonymous": false,
      "inputs": [
        {
          "indexed": false,
          "name": "index",
          "type": "uint256"
        },
        {
          "indexed": false,
          "name": "price",
          "type": "uint256"
        }
      ],
      "name": "PlotPriceChanged",
      "type": "event"
    },
    {
      "anonymous": false,
      "inputs": [
        {
          "indexed": false,
          "name": "index",
          "type": "uint256"
        },
        {
          "indexed": false,
          "name": "price",
          "type": "uint256"
        },
        {
          "indexed": false,
          "name": "forSale",
          "type": "bool"
        }
      ],
      "name": "PlotAvailabilityChanged",
      "type": "event"
    },
    {
      "constant": false,
      "inputs": [
        {
          "name": "index",
          "type": "uint256"
        },
        {
          "name": "price",
          "type": "uint256"
        }
      ],
      "name": "plotForSale",
      "outputs": [],
      "payable": false,
      "stateMutability": "nonpayable",
      "type": "function"
    },
    {
      "constant": false,
      "inputs": [],
      "name": "sell",
      "outputs": [],
      "payable": false,
      "stateMutability": "nonpayable",
      "type": "function"
    },
    {
      "constant": false,
      "inputs": [
        {
          "name": "index",
          "type": "uint256"
        }
      ],
      "name": "takeOffMarket",
      "outputs": [],
      "payable": false,
      "stateMutability": "nonpayable",
      "type": "function"
    },
    {
      "constant": true,
      "inputs": [],
      "name": "getPlots",
      "outputs": [
        {
          "name": "",
          "type": "address[]"
        },
        {
          "name": "",
          "type": "bool[]"
        },
        {
          "name": "",
          "type": "uint256[]"
        }
      ],
      "payable": false,
      "stateMutability": "view",
      "type": "function"
    },
    {
      "constant": false,
      "inputs": [
        {
          "name": "index",
          "type": "uint256"
        }
      ],
      "name": "buyPlots",
      "outputs": [],
      "payable": true,
      "stateMutability": "payable",
      "type": "function"
    },
    {
      "constant": false,
      "inputs": [],
      "name": "withDraw",
      "outputs": [],
      "payable": true,
      "stateMutability": "payable",
      "type": "function"
    }
  ],
  "bytecode": "0x608060405234801561001057600080fd5b50336000806101000a81548173ffffffffffffffffffffffffffffffffffffffff021916908373ffffffffffffffffffffffffffffffffffffffff1602179055506107d0600360006003811061006257fe5b60030201600201819055506001600360006003811061007d57fe5b6003020160010160146101000a81548160ff0219169083151502179055506107d060036001600381106100ac57fe5b6003020160020181905550600160036001600381106100c757fe5b6003020160010160146101000a81548160ff0219169083151502179055506107d060036002600381106100f657fe5b60030201600201819055506001600360026003811061011157fe5b6003020160010160146101000a81548160ff021916908315150217905550610b678061013e6000396000f3fe6080604052600436106100865760003560e01c806361bf49ee1161005957806361bf49ee146101685780639ce1148c14610228578063b12b83e71461026d578063d13114461461029b578063f9cf80a9146102d657610086565b806308551a531461008b5780630fdb1c10146100e257806327e235e3146100ec5780634571007414610151575b600080fd5b34801561009757600080fd5b506100a06103d2565b604051808273ffffffffffffffffffffffffffffffffffffffff1673ffffffffffffffffffffffffffffffffffffffff16815260200191505060405180910390f35b6100ea6103f8565b005b3480156100f857600080fd5b5061013b6004803603602081101561010f57600080fd5b81019080803573ffffffffffffffffffffffffffffffffffffffff1690602001909291905050506104d5565b6040518082815260200191505060405180910390f35b34801561015d57600080fd5b506101666104ed565b005b34801561017457600080fd5b506101a16004803603602081101561018b57600080fd5b8101908080359060200190929190505050610530565b604051808573ffffffffffffffffffffffffffffffffffffffff1673ffffffffffffffffffffffffffffffffffffffff1681526020018473ffffffffffffffffffffffffffffffffffffffff1673ffffffffffffffffffffffffffffffffffffffff1681526020018315151515815260200182815260200194505050505060405180910390f35b34801561023457600080fd5b5061026b6004803603604081101561024b57600080fd5b8101908080359060200190929190803590602001909291905050506105b0565b005b6102996004803603602081101561028357600080fd5b81019080803590602001909291905050506106a4565b005b3480156102a757600080fd5b506102d4600480360360208110156102be57600080fd5b81019080803590602001909291905050506108ba565b005b3480156102e257600080fd5b506102eb61099c565b60405180806020018060200180602001848103845287818151815260200191508051906020019060200280838360005b8381101561033657808201518184015260208101905061031b565b50505050905001848103835286818151815260200191508051906020019060200280838360005b8381101561037857808201518184015260208101905061035d565b50505050905001848103825285818151815260200191508051906020019060200280838360005b838110156103ba57808201518184015260208101905061039f565b50505050905001965050505050505060405180910390f35b600160009054906101000a900473ffffffffffffffffffffffffffffffffffffffff1681565b60003390506000600260008373ffffffffffffffffffffffffffffffffffffffff1673ffffffffffffffffffffffffffffffffffffffff1681526020019081526020016000205490506000811161044e57600080fd5b6000600260008473ffffffffffffffffffffffffffffffffffffffff1673ffffffffffffffffffffffffffffffffffffffff168152602001908152602001600020819055508173ffffffffffffffffffffffffffffffffffffffff166108fc829081150290604051600060405180830381858888f193505050506104d157600080fd5b5050565b60026020528060005260406000206000915090505481565b33600160006101000a81548173ffffffffffffffffffffffffffffffffffffffff021916908373ffffffffffffffffffffffffffffffffffffffff160217905550565b6003816003811061053d57fe5b600302016000915090508060000160009054906101000a900473ffffffffffffffffffffffffffffffffffffffff16908060010160009054906101000a900473ffffffffffffffffffffffffffffffffffffffff16908060010160149054906101000a900460ff16908060020154905084565b6000600383600381106105bf57fe5b6003020190508060000160009054906101000a900473ffffffffffffffffffffffffffffffffffffffff1673ffffffffffffffffffffffffffffffffffffffff163373ffffffffffffffffffffffffffffffffffffffff161480156106245750600082115b61062d57600080fd5b60018160010160146101000a81548160ff0219169083151502179055508181600201819055507ff8d85ddec75c998a4715c6f8d537607faa56efa42937f3ed1e18eb6ab0ab4af3838360016040518084815260200183815260200182151515158152602001935050505060405180910390a1505050565b6000600382600381106106b357fe5b6003020190508060000160009054906101000a900473ffffffffffffffffffffffffffffffffffffffff1673ffffffffffffffffffffffffffffffffffffffff163373ffffffffffffffffffffffffffffffffffffffff161415801561072757508060010160149054906101000a900460ff165b8015610737575080600201543410155b61074057600080fd5b600073ffffffffffffffffffffffffffffffffffffffff168160010160009054906101000a900473ffffffffffffffffffffffffffffffffffffffff1673ffffffffffffffffffffffffffffffffffffffff16141561080d573460026000600160009054906101000a900473ffffffffffffffffffffffffffffffffffffffff1673ffffffffffffffffffffffffffffffffffffffff1673ffffffffffffffffffffffffffffffffffffffff1681526020019081526020016000206000828254019250508190555061087f565b34600260008360010160009054906101000a900473ffffffffffffffffffffffffffffffffffffffff1673ffffffffffffffffffffffffffffffffffffffff1673ffffffffffffffffffffffffffffffffffffffff168152602001908152602001600020600082825401925050819055505b7fdfae03cf228ff8c45c20fc02b731bb43373364bd428f52e24885f609814ce497826040518082815260200191505060405180910390a15050565b6000600382600381106108c957fe5b6003020190508060000160009054906101000a900473ffffffffffffffffffffffffffffffffffffffff1673ffffffffffffffffffffffffffffffffffffffff163373ffffffffffffffffffffffffffffffffffffffff161461092b57600080fd5b60008160010160146101000a81548160ff0219169083151502179055507ff8d85ddec75c998a4715c6f8d537607faa56efa42937f3ed1e18eb6ab0ab4af382826002015460006040518084815260200183815260200182151515158152602001935050505060405180910390a15050565b60608060608060036040519080825280602002602001820160405280156109d25781602001602082028038833980820191505090505b50905060606003604051908082528060200260200182016040528015610a075781602001602082028038833980820191505090505b50905060606003604051908082528060200260200182016040528015610a3c5781602001602082028038833980820191505090505b50905060008090505b6003811015610b2957600060038260038110610a5d57fe5b6003020190508060000160009054906101000a900473ffffffffffffffffffffffffffffffffffffffff16858381518110610a9457fe5b602002602001019073ffffffffffffffffffffffffffffffffffffffff16908173ffffffffffffffffffffffffffffffffffffffff16815250508060020154838381518110610adf57fe5b6020026020010181815250508060010160149054906101000a900460ff16848381518110610b0957fe5b602002602001019015159081151581525050508080600101915050610a45565b5082828295509550955050505090919256fea165627a7a723058209457768e6bdbbbc3a5bfe90b086fc694d83e629883d7c08995cbff9e25d559b60029",
  "source": "pragma solidity ^0.5.0;\n\ncontract Property{\n    address owner;\n    address public seller;\n\n    mapping(address => uint) public balances;\n    struct Plot{\n        address owner;\n        address seller;\n        bool forSale;\n        uint price;\n    }\n    Plot[3] public plots;\n\n    event PlotOwnerChanged(\n        uint index\n    );\n\n    event PlotPriceChanged(\n        uint index,\n        uint price\n    );\n\n    event PlotAvailabilityChanged(\n        uint index,\n        uint price,\n        bool forSale\n    );\n    constructor() public {\n        owner = msg.sender;\n        plots[0].price = 2000;\n        plots[0].forSale = true;\n        plots[1].price = 2000;\n        plots[1].forSale = true;\n        plots[2].price = 2000;\n        plots[2].forSale = true;\n    }\n\n    function plotForSale(uint index, uint price) public{\n        Plot storage plot = plots[index];\n\n        require(msg.sender == plot.owner && price > 0);\n        plot.forSale = true;\n        plot.price = price;\n        emit PlotAvailabilityChanged(index, price, true);\n    }\nfunction sell() public{\n    seller = msg.sender;\n}\n    function takeOffMarket(uint index) public{\n        Plot storage plot = plots[index];\n\n        require(msg.sender == plot.owner);\n\n        plot.forSale = false;\n        emit PlotAvailabilityChanged(index, plot.price, false);\n    }\n\n    function getPlots() public view returns(address[] memory, bool[] memory, uint[] memory){\n        address[] memory addr = new address[](3);\n        bool[] memory available = new bool[](3);\n        uint[] memory price = new uint[](3);\n\n        for(uint i=0; i<3; i++){\n              Plot storage plot = plots[i];\n            addr[i] = plot.owner;\n            price[i] = plot.price;\n            available[i] = plot.forSale;\n        }\n        return(addr,available,price);\n    }\n\n    function buyPlots(uint index) public payable{\n        Plot storage plot = plots[index];\n\n        require(msg.sender != plot.owner && plot.forSale && msg.value >= plot.price);\n\n        if(address(plot.seller) == address(0x0)){\n            balances[seller] += msg.value;\n        } else{\n            balances[plot.seller] += msg.value;\n        }\n        // plot.owner =msg.sender;\n        // plot.forSale = false;\n        emit PlotOwnerChanged(index);\n    }\n\n    function withDraw() public payable{\n        address payable payee = msg.sender;\n        uint payment = balances[payee];\n\n        require(payment >0);\n\n        balances[payee] = 0;\n        require(payee.send(payment));\n    }\n\n    // function destroy() payable public{\n    //     require(msg.sender == owner);\n    //     selfdestruct(owner);\n    // }\n\n}\n\n//contractAddress:0xE95194ddDD05B09f0e500D59Cba88e7F68cb1d1e",
  "sourcePath": "/home/sreeharsha/Documents/RajeshD/codingChallenge/propertynew/solidity/contracts/Property.sol",
  "compiler": {
    "name": "solc",
    "version": "0.5.8+commit.23d335f2.Emscripten.clang"
  },
  "schemaVersion": "3.0.10",
  "updatedAt": "2019-08-08T07:03:05.182Z",
  "devdoc": {
    "methods": {}
  },
  "userdoc": {
    "methods": {}
  }
}