{
  "contractName": "Prop",
  "abi": [
    {
      "anonymous": false,
      "inputs": [
        {
          "indexed": false,
          "name": "assetId",
          "type": "bytes32"
        },
        {
          "indexed": false,
          "name": "ownerId",
          "type": "bytes32"
        },
        {
          "indexed": false,
          "name": "assetPrice",
          "type": "uint256"
        }
      ],
      "name": "addedAsset",
      "type": "event"
    },
    {
      "anonymous": false,
      "inputs": [
        {
          "indexed": false,
          "name": "assetId",
          "type": "bytes32"
        },
        {
          "indexed": false,
          "name": "owner",
          "type": "bytes32"
        },
        {
          "indexed": false,
          "name": "dates",
          "type": "bytes32"
        }
      ],
      "name": "ownerShipChange",
      "type": "event"
    },
    {
      "anonymous": false,
      "inputs": [
        {
          "indexed": false,
          "name": "assetId",
          "type": "bytes32"
        },
        {
          "indexed": false,
          "name": "maintenanceDesc",
          "type": "bytes32"
        },
        {
          "indexed": false,
          "name": "maintainer",
          "type": "bytes32"
        },
        {
          "indexed": false,
          "name": "date",
          "type": "bytes32"
        }
      ],
      "name": "maintenance",
      "type": "event"
    },
    {
      "constant": false,
      "inputs": [
        {
          "name": "userId",
          "type": "bytes32"
        },
        {
          "name": "Assetid",
          "type": "bytes32"
        },
        {
          "name": "activityDate",
          "type": "bytes32"
        },
        {
          "name": "presentAct",
          "type": "bytes32"
        },
        {
          "name": "assetPrice",
          "type": "uint256"
        },
        {
          "name": "aName",
          "type": "bytes32"
        }
      ],
      "name": "setAssetData",
      "outputs": [
        {
          "name": "",
          "type": "bool"
        }
      ],
      "payable": false,
      "stateMutability": "nonpayable",
      "type": "function"
    },
    {
      "constant": true,
      "inputs": [
        {
          "name": "Assetid",
          "type": "bytes32"
        }
      ],
      "name": "getAssetData",
      "outputs": [
        {
          "name": "owner",
          "type": "bytes32[]"
        },
        {
          "name": "assetHistory",
          "type": "bytes32[]"
        },
        {
          "name": "activityHistory",
          "type": "bytes32[]"
        }
      ],
      "payable": false,
      "stateMutability": "view",
      "type": "function"
    },
    {
      "constant": false,
      "inputs": [
        {
          "name": "Assetid",
          "type": "bytes32"
        },
        {
          "name": "newOwnerid",
          "type": "bytes32"
        },
        {
          "name": "date",
          "type": "bytes32"
        }
      ],
      "name": "ownershipChange",
      "outputs": [],
      "payable": false,
      "stateMutability": "nonpayable",
      "type": "function"
    },
    {
      "constant": false,
      "inputs": [
        {
          "name": "Assetid",
          "type": "bytes32"
        },
        {
          "name": "maintenanceInfo",
          "type": "bytes32"
        },
        {
          "name": "date",
          "type": "bytes32"
        }
      ],
      "name": "service",
      "outputs": [],
      "payable": false,
      "stateMutability": "nonpayable",
      "type": "function"
    },
    {
      "constant": true,
      "inputs": [
        {
          "name": "AssetId",
          "type": "bytes32"
        }
      ],
      "name": "maintenanceHistory",
      "outputs": [
        {
          "name": "desc",
          "type": "bytes32[]"
        },
        {
          "name": "dates",
          "type": "bytes32[]"
        },
        {
          "name": "owners",
          "type": "bytes32[]"
        }
      ],
      "payable": false,
      "stateMutability": "view",
      "type": "function"
    }
  ],
  "bytecode": "0x608060405234801561001057600080fd5b50610a22806100206000396000f3fe608060405234801561001057600080fd5b50600436106100575760003560e01c80630ec51ba01461005c5780632282d9951461016f5780633feeac59146101b15780635197759b14610229578063c2accc891461033c575b600080fd5b6100886004803603602081101561007257600080fd5b810190808035906020019092919050505061037e565b60405180806020018060200180602001848103845287818151815260200191508051906020019060200280838360005b838110156100d35780820151818401526020810190506100b8565b50505050905001848103835286818151815260200191508051906020019060200280838360005b838110156101155780820151818401526020810190506100fa565b50505050905001848103825285818151815260200191508051906020019060200280838360005b8381101561015757808201518184015260208101905061013c565b50505050905001965050505050505060405180910390f35b6101af6004803603606081101561018557600080fd5b810190808035906020019092919080359060200190929190803590602001909291905050506104bf565b005b61020f600480360360c08110156101c757600080fd5b810190808035906020019092919080359060200190929190803590602001909291908035906020019092919080359060200190929190803590602001909291905050506105fe565b604051808215151515815260200191505060405180910390f35b6102556004803603602081101561023f57600080fd5b810190808035906020019092919050505061077a565b60405180806020018060200180602001848103845287818151815260200191508051906020019060200280838360005b838110156102a0578082015181840152602081019050610285565b50505050905001848103835286818151815260200191508051906020019060200280838360005b838110156102e25780820151818401526020810190506102c7565b50505050905001848103825285818151815260200191508051906020019060200280838360005b83811015610324578082015181840152602081019050610309565b50505050905001965050505050505060405180910390f35b61037c6004803603606081101561035257600080fd5b810190808035906020019092919080359060200190929190803590602001909291905050506108b8565b005b6060806060600160008581526020019081526020016000206000018054806020026020016040519081016040528092919081815260200182805480156103e357602002820191906000526020600020905b8154815260200190600101908083116103cf575b505050505092506001600085815260200190815260200160002060010180548060200260200160405190810160405280929190818152602001828054801561044a57602002820191906000526020600020905b815481526020019060010190808311610436575b50505050509150600160008581526020019081526020016000206002018054806020026020016040519081016040528092919081815260200182805480156104b157602002820191906000526020600020905b81548152602001906001019080831161049d575b505050505090509193909250565b81600080858152602001908152602001600020600101819055506000808481526020019081526020016000206004018290806001815401808255809150509060018203906000526020600020016000909192909190915055506000808481526020019081526020016000206005018190806001815401808255809150509060018203906000526020600020016000909192909190915055506000808481526020019081526020016000206006018060018154018082558091505090600182039060005260206000200160007f6f63000000000000000000000000000000000000000000000000000000000000909190915055507f3a28a084357a1cf3d381c66f089e0ab35a2edab114ee744852efc3a8058dad0083838360405180848152602001838152602001828152602001935050505060405180910390a1505050565b600086600080888152602001908152602001600020600101819055508560008088815260200190815260200160002060000181905550826000808881526020019081526020016000206003018190555081600080888152602001908152602001600020600201819055506000808781526020019081526020016000206005018590806001815401808255809150509060018203906000526020600020016000909192909190915055506000808781526020019081526020016000206006018490806001815401808255809150509060018203906000526020600020016000909192909190915055506000808781526020019081526020016000206004018790806001815401808255809150509060018203906000526020600020016000909192909190915055507f5c1e837527a537c546d296ae07453f8e749a9edd69e8d15683b0845ad7ce08e986888560405180848152602001838152602001828152602001935050505060405180910390a1600190509695505050505050565b60608060606000808581526020019081526020016000206004018054806020026020016040519081016040528092919081815260200182805480156107de57602002820191906000526020600020905b8154815260200190600101908083116107ca575b5050505050925060008085815260200190815260200160002060050180548060200260200160405190810160405280929190818152602001828054801561084457602002820191906000526020600020905b815481526020019060010190808311610830575b505050505091506000808581526020019081526020016000206006018054806020026020016040519081016040528092919081815260200182805480156108aa57602002820191906000526020600020905b815481526020019060010190808311610896575b505050505090509193909250565b6001600084815260200190815260200160002060000182908060018154018082558091505090600182039060005260206000200160009091929091909150555060016000848152602001908152602001600020600101819080600181540180825580915050906001820390600052602060002001600090919290919091505550600160008481526020019081526020016000206002016000808581526020019081526020016000206001015490806001815401808255809150509060018203906000526020600020016000909192909190915055507f2ebbdc154167246a5fe681de37dc68dc62542e8af650431cd8771a1132896cea838360008087815260200190815260200160002060010154846040518085815260200184815260200183815260200182815260200194505050505060405180910390a150505056fea165627a7a723058208ed27b03955bab1a580d4de304a87e5fb96c9e7bd58ab3c8c6f62d7b42cd06ee0029",
  "source": "pragma solidity ^0.5.0;\n\n\ncontract Prop {\n \n    struct asset {\n        bytes32 assetID;\n        bytes32 ownerID;\n        bytes32 assetName;\n        uint price;\n        bytes32[] allOwners;\n        bytes32[] history;\n        bytes32[] activityHistory;\n        \n    }\n\n    struct assetMaintenance {\n        bytes32[] maintenanceDescription;\n        bytes32[]   maintenanceDates;\n        bytes32[] maintainers;\n    }\n    \n    mapping(bytes32=>asset) idAssetMap;\n    mapping(bytes32=>assetMaintenance) assetMaintenanceMap;\n\n    event addedAsset(bytes32 assetId,bytes32 ownerId, uint assetPrice);\n    event ownerShipChange(bytes32 assetId, bytes32 owner, bytes32 dates);\n    event maintenance(bytes32 assetId,bytes32 maintenanceDesc, bytes32 maintainer, bytes32 date);\n\n    function setAssetData(bytes32  userId,bytes32  Assetid,bytes32 activityDate,bytes32 presentAct,uint assetPrice,bytes32 aName) \n    public returns(bool){\n\n        idAssetMap[Assetid].ownerID = userId;\n        idAssetMap[Assetid].assetID = Assetid;\n        idAssetMap[Assetid].price = assetPrice;\n        idAssetMap[Assetid].assetName = aName;\n        idAssetMap[Assetid].history.push(activityDate);\n        idAssetMap[Assetid].activityHistory.push(presentAct);\n        idAssetMap[Assetid].allOwners.push(userId);\n        emit addedAsset(Assetid,userId,assetPrice);\n        return true;\n    }\n\n    function getAssetData(bytes32 Assetid) public view returns(bytes32[] memory owner,\n    bytes32[] memory  assetHistory,bytes32[] memory activityHistory){\n  \n        owner = idAssetMap[Assetid].allOwners;\n        assetHistory = idAssetMap[Assetid].history;\n        activityHistory = idAssetMap[Assetid].activityHistory;\n    }\n\n    function ownershipChange(bytes32 Assetid, bytes32 newOwnerid, bytes32 date) public{\n        \n        idAssetMap[Assetid].ownerID = newOwnerid;\n        idAssetMap[Assetid].allOwners.push(newOwnerid);\n        idAssetMap[Assetid].history.push(date);\n        idAssetMap[Assetid].activityHistory.push(\"oc\");\n        emit ownerShipChange(Assetid,newOwnerid,date);\n    }\n\n    function service(bytes32 Assetid,bytes32 maintenanceInfo, bytes32 date) public{\n        assetMaintenanceMap[Assetid].maintenanceDescription.push(maintenanceInfo);\n        assetMaintenanceMap[Assetid].maintenanceDates.push(date);\n        assetMaintenanceMap[Assetid].maintainers.push(idAssetMap[Assetid].ownerID);\n        emit maintenance(Assetid,maintenanceInfo,idAssetMap[Assetid].ownerID,date);\n    }\n\n    function maintenanceHistory(bytes32 AssetId) public view returns(bytes32[] memory desc, bytes32[] memory dates, bytes32[] memory owners )   {\n        desc = assetMaintenanceMap[AssetId].maintenanceDescription;\n        dates = assetMaintenanceMap[AssetId].maintenanceDates;\n        owners = assetMaintenanceMap[AssetId].maintainers;\n\n    }\n  \n\n}\n",
  "sourcePath": "/home/sreeharsha/Documents/RajeshD/propertymanagement/property-api/solidity/contracts/Prop.sol",
  "compiler": {
    "name": "solc",
    "version": "0.5.8+commit.23d335f2.Emscripten.clang"
  },
  "schemaVersion": "3.0.10",
  "updatedAt": "2019-06-20T11:25:10.861Z",
  "devdoc": {
    "methods": {}
  },
  "userdoc": {
    "methods": {}
  }
}